:020000040001F9
:10600000303C002069A7010083A7010085A701009B
:106010000000000000000000000000000000000080
:1060200000000000000000000000000087A7010041
:10603000000000000000000089A701008BA70100FC
:106040008DA701008DA701008DA701008DA701007C
:106050008DA7010000000000D59601008DA701006A
:106060008DA701008DA701008DA701008DA701005C
:106070008DA701008DA701008DA701008DA701004C
:106080008DA70100978B01008DA701008DA701004E
:10609000B98B01008DA70100379301008DA7010086
:1060A0008DA701008DA70100000000000000000086
:1060B00000000000000000000000000000000000E0
:1060C00000F002F800F03EF80CA030C808382418A0
:1060D0002D18A246671EAB4654465D46AC4201D120
:1060E00000F030F87E460F3E0FCCB6460126334214
:1060F00000D0FB1AA246AB4633431847104B0000B2
:10610000304B0000103A02D378C878C1FAD8520751
:1061100001D330C830C101D504680C60704700005D
:106120000023002400250026103A01D378C1FBD8B3
:10613000520700D330C100D50B6070471FB51FBD9B
:1061400010B510BD04F007FD1146FFF7F7FF00F092
:10615000A4FB04F01FFD03B4FFF7F2FF03BC04F03F
:1061600025FD0000401E00BF00BF00BF00BF00BFF4
:1061700000BF00BF00BF00BF00BF00BF00BFF1D124
:106180007047000070B505460C46164602E00FCC7D
:106190000FC5103E102EFAD2082E02D303CC03C531
:1061A000083E042E07D301CC01C5361F03E0217839
:1061B0002970641C6D1C761EF9D270BD01238340CA
:1061C0001946FE4B5B68C340DA07D20F002A02D1A2
:1061D000FA4B996001E0F94BD960704770B50446FD
:1061E0000D4616462246F6A1002004F0ACFA70BD1A
:1061F00070B540DF044600BF2546002D06D000BF25
:10620000F4A252212846FFF7E9FF00BF00BF70BD8E
:1062100070B504460D462A462146F148FFF7DEFFD9
:1062200070BD10B5122000F056FB132000F053FB98
:1062300010BD38B500BFEB48EB4B052204210090A0
:10624000002002F0BDFC044600BF2546002D06D00C
:1062500000BFE0A268212846FFF7C0FF00BF00BFD3
:1062600000BF38BD3EB500BF68460078010909018E
:10627000491C009168460078F02188431030009056
:1062800000BF1222D9A168467CDF044600BF254624
:10629000002D06D000BFCFA283212846FFF79EFF26
:1062A00000BF00BF002001900290FF21913168469D
:1062B00081804900C18000210181FF21913141810C
:1062C00001A87ADF044600BF2546002D06D000BF96
:1062D000C0A28D212846FFF781FF00BF00BF3EBD51
:1062E00030B59FB005210291C54800680190C548AE
:1062F000817A68468171382111A804F07AFB022165
:1063000010A8017101218171018102A9139101215C
:106310006846818401A90A9100200090BA48817AD8
:1063200068468170382103A804F063FB01216846A8
:10633000818469460A9103A911A801F0D3FE04469D
:1063400000BF2546002D06D000BFA2A2A7212846E7
:10635000FFF744FF00BF00BF1FB030BD70B505465A
:106360000C46002C06D0122000F0BEFA0120A749EE
:10637000087005E0122000F0BCFA0020A349087064
:1063800070BD70B505460C46002C06D0132000F0F9
:10639000ABFA01209E49087005E0132000F0A9FA2D
:1063A00000209B49087070BD7CB59A4801909A48BE
:1063B000009001A9934800F0E1FB044600BF254688
:1063C000002D06D000BF83A2D0212846FFF706FF8C
:1063D00000BF00BF69468C4800F0F8FC044600BFCF
:1063E0002546002D06D000BF7AA2D2212846FFF70D
:1063F000F5FE00BF00BF7CBD1E208849088008460E
:10640000807840084000401C88700846807802214F
:10641000884382498870084680781C2188430C3064
:106420007E49887008468078202188437B4988709F
:106430000720C87010200871704770B5054628788D
:10644000002810D13B217648008876DF044600BF43
:106450002646002E06D000BF5EA2E7213046FFF799
:10646000BDFE00BF00BF70BD10B5044600BF59A2FD
:10647000ED212046FFF7B2FE00BF10BD30B587B05A
:106480001C21684604F0B5FA002000900520C003E6
:1064900001900F200004029003216846017300213F
:1064A000C18101745F4805905F480690684602F01C
:1064B0006CFD044600BF2546002D07D000BF45A255
:1064C000FF2102312846FFF789FE00BF00BF07B059
:1064D00030BD30B585B01421684604F08AFA002139
:1064E00068460170002001906846017240210182D7
:1064F000B421418273DF044600BF2546002D07D03A
:1065000000BF34A2FF2114312846FFF767FE00BF09
:1065100000BF05B030BDF8B50546288814284BD01B
:1065200006DC10280BD011281DD0132845D131E0EE
:1065300017287BD019287AD05228F7D17BE0A88879
:106540003749088003F003F8044600BF2746002FB0
:1065500007D000BF1FA2FF2122313846FFF73EFEC1
:1065600000BF00BFB5E00020C0432D49088002F005
:10657000FAFF044600BF2746002F07D000BF15A230
:10658000FF2128313846FFF729FE00BF00BFFFF783
:10659000A0FF9EE0214A0021214800887FDF0446B9
:1065A00000BF2746002F44D000BF0AA2FF21303190
:1065B0003846FFF713FE3BE057E089E00005005046
:1065C0006572726F725F636F6465203D2025640A97
:1065D000000000002E2E5C6D61696E2E63000000CD
:1065E000EFBEADDEFD68010000210020424C455F9A
:1065F000434F4E54524F4C5F43454E54455200005A
:10660000D8AB0100D8200020EC200020082000207A
:10661000092000205D630100836301000020002049
:10662000062000203B6401006964010017E049E096
:1066300000BF00BF4DE000221146D5480088A9DF09
:10664000044600BF2746002F07D000BFD14AFF21D4
:1066500035313846FFF7C2FD00BF00BF39E03222B6
:10666000A91DCD4804F066F933E0CB4EB61D318844
:10667000E889814212D100223146C548008881DF75
:10668000044600BF2746002F07D000BFC14AFF21A4
:1066900041313846FFF7A2FD00BF12E0002211464B
:1066A000BB48008881DF044600BF2746002F07D083
:1066B00000BFB84AFF2147313846FFF78FFD00BFC2
:1066C00000BF06E0A879002801D1FFF702FF00E033
:1066D00000BF00BFF8BD10B504462046FFF71BFF02
:1066E000204602F026FD2146AC4800F0B3F92146D1
:1066F000AB4800F0D7FA10BD10B50446204600F0B4
:1067000072FE10BDF8B500BF00235022A549082035
:1067100002F0C9FD054600BF2E46002E07D000BF7F
:106720009C4AFF216A313046FFF758FD00BF00BF89
:1067300000BF002000900090684660DF044600BF64
:106740002546002D07D000BF924AFF21713128460F
:10675000FFF744FD00BF00BF934802F0DAFD044696
:1067600000BF2546002D07D000BF8A4AFF217531A2
:106770002846FFF733FD00BF00BF8C4802F0D2FD72
:10678000044600BF2546002D07D000BF814AFF21E7
:1067900079312846FFF722FD00BF00BFF8BD70B574
:1067A00000BF834A0A21082001F0E4FC044600BF30
:1067B0002546002D07D000BF764AFF217E312846AE
:1067C000FFF70CFD00BF00BF00BF70BD70B50446F1
:1067D0000D46012D32D1102C02D0112C24D111E004
:1067E0001220FFF7EBFC73480078002801D101204C
:1067F00000E000206F49087008460178674800F003
:10680000EEF91AE01320FFF7D9FC6B480078002856
:1068100001D1012000E00020674908700846017896
:106820005F4800F003FB08E000BF5A4AFF219231A5
:106830002046FFF7D3FC00BF00BF00BF70BD70B59E
:1068400000BF5E49012002F0C5FF044600BF254697
:10685000002D07D000BF4F4AFF219A312846FFF78D
:10686000BDFC00BF00BF00BF70BD70B500BF544B82
:10687000544A0221544802F028FE044600BF25462F
:10688000002D07D000BF434AFF21A4312846FFF75F
:10689000A5FC00BF00BF00BF70BDFFF7C2FCFFF743
:1068A000C8FCFFF7CCFFFFF7E0FFFFF72BFFFFF778
:1068B00076FFFFF7D7FCFFF777FDFFF711FDFFF736
:1068C000DDFDFFF799FDFFF704FE00BF01F014FDA9
:1068D000FFF78EFCFAE703210522120707231B02AC
:1068E000D2188300D150704701218140374A91600E
:1068F000704701218140354AD16070477CB504461C
:106900000D4600940195324A0821684601F053FC77
:106910007CBD7CB504460D4616460094684605715C
:1069200046712C4A082101F046FC7CBDF8B50446AE
:106930000D46264600BF082D01D1012000E00020B1
:106940000746002F06D100BF23A2FF211B31FFF70E
:1069500045FC00BF00BF316870688847F8BDF8B5D6
:1069600005460E462C4600BF082E01D1012000E04E
:1069700000200746002F05D100BF20A2A821FFF765
:106980002DFC00BF00BF6179207922689047F8BDD7
:1069900006200020D465010068230020D8200020B4
:1069A000EC2000209C230020D7660100F96601003E
:1069B000EC23002008200020092000209C24002037
:1069C00013690100660600000C200020000500503D
:1069D0002D6901005F6901002E2E5C496E636C75A4
:1069E00064655C6170705F636F6D6D6F6E5C61702C
:1069F000705F74696D65722E680000002E2E5C4910
:106A00006E636C7564655C6170705F636F6D6D6FF4
:106A10006E5C6170705F627574746F6E2E680000DA
:106A20008A88828170470022D2438281704770B584
:106A300004460E46B51D28886188884209D1288BF6
:106A4000012806D12069002803D0A97E20462269AA
:106A5000904770BD70B505460C462088102804D0BC
:106A6000112807D050280FD109E021462846FFF70A
:106A7000D7FF0AE021462846FFF7D5FF05E021466B
:106A80002846FFF7D4FF00E000BF00BF70BD30B55F
:106A90008FB004460D46002100911C2108A803F088
:106AA000A8FF08A8007810218843411808A80170A1
:106AB000007802218843811C08A801700078082111
:106AC0008843411808A80170002009900B900C9091
:106AD0000D900E90A17A684681725A49018100207A
:106AE000019000BF6846007901090901491C684608
:106AF00001710079F021884310306946087100BFA8
:106B000000BF6846407901090901491C6846417186
:106B10004079F021884310306946487100BF6846CB
:106B2000807906218843811C68468171807908211B
:106B30008843014668468171807910218843014667
:106B40006846817180794108490068468171142145
:106B500003A803F04EFF02A8039001A804900121AE
:106B6000684681820021C18201210183079020882B
:106B7000A31C03AA08A9A2DF0FB030BD70B586B070
:106B800004460E460020C043A081306820612E4B91
:106B90000FCB01AD0FC521460A3101A863DF0546C1
:106BA000002D02D0284606B070BDA17A68468175D6
:106BB000012109038182224605A90120A0DF0546A3
:106BC000002D01D02846EEE731462046FFF75FFF53
:106BD0000546002D01D02846E5E70020E3E733B560
:106BE00085B0054601200490A8891849884214D030
:106BF000002000900190029003906988684601800F
:106C0000012181700021818004A8029006A80390D0
:106C1000A8896946A6DF044600E00824002C0ED0AF
:106C2000082C0CD00A48844209D00A48844206D075
:106C300000BF09A2A9212046FFF7D0FA00BF07B084
:106C400030BD000001100000DCAB0100FFFF0000C0
:106C500004300000013400002E2E5C626C655F661B
:106C6000616E5F636F6E74726F6C2E630000000064
:106C70008A88828170470022D2438281704770B532
:106C800004460E46B51D28886188884209D1288BA4
:106C9000012806D12069002803D0A97E2046226958
:106CA000904770BD70B505460C462088102804D06A
:106CB000112807D050280FD109E021462846FFF7B8
:106CC000D7FF0AE021462846FFF7D5FF05E0214619
:106CD0002846FFF7D4FF00E000BF00BF70BD30B50D
:106CE0008FB004460D46002100911C2108A803F036
:106CF00080FE08A8007810218843411808A8017078
:106D0000007802218843811C08A8017000780821BE
:106D10008843411808A80170002009900B900C903E
:106D20000D900E90A17A68468172012101810020A8
:106D3000019000BF6846007901090901491C6846B5
:106D400001710079F021884310306946087100BF55
:106D500000BF6846407901090901491C6846417134
:106D60004079F021884310306946487100BF684679
:106D7000807906218843811C6846817180790821C9
:106D80008843014668468171807910218843014615
:106D900068468171807941084900684681711421F3
:106DA00003A803F026FE02A8039001A80490012185
:106DB000684681820021C1820121018307902088D9
:106DC000A31C03AA08A9A2DF0FB030BD70B586B01E
:106DD00004460E460020C043A081306820612C4B41
:106DE0000FCB01AD0FC521460A3101A863DF05466F
:106DF000002D02D0284606B070BDA17A6846817584
:106E000000218182224605A90120A0DF0546002D30
:106E100001D02846EFE731462046FFF760FF0546E0
:106E2000002D01D02846E6E70020E4E733B585B021
:106E3000054601200490A8891649884214D00020F4
:106E400000900190029003906988684601800121BA
:106E500081700021818004A8029006A80390A8896F
:106E60006946A6DF044600E00824002C0ED0082C5A
:106E70000CD00948844209D00848844206D000BF9B
:106E800007A2A9212046FFF7A9F900BF07B030BD2E
:106E9000ECAB0100FFFF00000430000001340000F3
:106EA0002E2E5C626C655F68756D5F636F6E7472C9
:106EB0006F6C2E6300000000002314214143FC4A44
:106EC00053541421414389184B8002231421414318
:106ED00089188B600023142141438918CB60142149
:106EE000414389180B611421414389188B807047F5
:106EF00010B50020EF490880EF490870EC49091FE0
:106F0000087048708870002403E02046FFF7D4FF23
:106F1000641C1E2CF9D310BDFFB583B004460F4688
:106F200015460326E448007800280BD1002D06D131
:106F30000698002803D10220DF49087002E00120F2
:106F4000DD490870DC480078030003F036FE07FDD9
:106F500005314E84BAD7FD00D8484069401C00284E
:106F600008D001221207126991B2D44A506903F085
:106F700042FD02E0012000074069401E012109078F
:106F8000096989B2484302900120000700690004A2
:106F9000820C01200007006980B278430146029804
:106FA00021DF0646002E02D10220C3490870D0E03E
:106FB000384620DF0646002E16D1002D11D1069846
:106FC00000280AD12078042803D10720BA49087084
:106FD0000AE00520B849087006E00420B6490870A8
:106FE00002E00320B4490870B3E0B4484069401C93
:106FF000002808D001221207126991B2AF4A5069E5
:1070000003F0F9FC02E0012000074069401E012165
:107010000907096989B248430121090702900969F2
:1070200089B2794308462A46029921DF0646002E96
:1070300010D1069800280AD12078042803D1062010
:107040009D49087006E005209B49087002E0042075
:10705000994908707DE099484069401C002808D093
:1070600001221207126991B2944A506903F0C3FCDD
:1070700002E0012000074069401E0121090709695B
:1070800089B24843A90040186188401801210907C6
:107090000290096989B27943AA0089186288881820
:1070A000069A029921DF0646002E09D1207804288D
:1070B00003D106208049087002E005207E4908704F
:1070C00047E001200007006980B27843AB00C01898
:1070D0000290608882082169029821DF0646002E0E
:1070E0000BD1002D06D10698002803D10720724944
:1070F000087002E00620704908702AE06F48406975
:10710000401C002808D001221207126991B26B4A74
:10711000506903F070FC02E0012000074069401E46
:1071200001210907096989B248430190012000073C
:10713000006981B2019803F05EFC029020DF0646F0
:10714000002E04D1072000E002E05B49087000E057
:1071500000BF00BF304607B0F0BDF0B585B00F27C7
:107160005348001F00781421484351494418E568EA
:107170002078022804D0042823D005286FD16FE09E
:10718000206903904B48008886026088801B049029
:10719000039880190390A08880194519012189025C
:1071A0000498884206D2049882082846039921DF71
:1071B000074605E0FF2201322846039921DF0746F2
:1071C00081E0A06800013E49401800890490A06851
:1071D0000001401840890390A068000140184068F1
:1071E00002900298A84205D1039904984843618807
:1071F000884202D0A06803280DD101200007006951
:1072000081B2284603F0F7FB2A4909884618304620
:1072100020DF074622E001200007006981B22846EE
:1072200003F0E9FB064601200007006980B27043C5
:10723000281A8008019001200007006980B2711CA3
:10724000484361884919401A800800903146204619
:10725000009B019AFFF760FE074600BF33E031E074
:1072600001200007006981B2284603F0C4FB0646EE
:10727000A088411901200007006980B27043081AF4
:1072800080080490A08840196188421801200007F6
:10729000006980B2711C4843801A8008039031460F
:1072A0002046039B049AFFF737FE07460BE00000D9
:1072B000B4240020242000202720002000100010EB
:1072C0000C27002000BF00BF002F02D10120F94988
:1072D0008870384605B0F0BDFFB581B00646174648
:1072E0000024F44840781E2837D0F2480078F1494D
:1072F00049784018C4B21E2C02DB20461E38C4B2A6
:1073000014206043EB49091D0E54142060434018BB
:107310000761142060434118029805C8CA6088605C
:1073200014206043E34A121D801804994180142000
:10733000604380180A9981800025101F80780028FA
:1073400005D1FFF70AFF0546112D00D10025D948C8
:107350004078401CD749487000E00425284605B015
:10736000F0BD10B50024D3484078002807DDFFF7B2
:10737000F4FE0446002C02D0112C00D1002420463B
:1073800010BDF8B50446CB48007814214843C949DC
:10739000091D0E5C081F007814214843C549091DCA
:1073A000401880680001C4490D58C2480078142173
:1073B0004843C049091D40184088091F00900978BA
:1073C00014225143BB4A121D89180B69111F0978F9
:1073D00014225143B74A121D891808460830224624
:1073E0003146A847F8BDFEB505460026B14880786D
:1073F00001287DD10020AF498870B0480078082866
:1074000011D1022D03D10020AC49087002E0002008
:10741000AB490870FFF7A5FF0646002E02D03046A4
:10742000FFF7AFFFFEBD022D02D0032D79D174E02E
:10743000A0480078142148439E49091D4418A148DA
:107440000088401C9F4908802078022807D1084600
:10745000008880026188884201DB012000E0002072
:1074600007462078052805D194480078072801D1DF
:10747000012000E0002002902078042805D18F48E8
:107480000078072801D1012000E000200190207839
:1074900004280BD18B48008880026188884205DB74
:1074A00086480078002801D1012000E000200090EB
:1074B0000298002807D10198002804D100980028DC
:1074C00001D1002F1FD000207C4908703046FFF703
:1074D00058FF78490878FFF7EFFC002079490880C9
:1074E00074484078401E734948700846007800E0B0
:1074F0001AE0401C0870084600781E2803DB084686
:1075000000781E380870FFF72CFF0646002E02D0C8
:107510003046FFF736FF05E003E00D20FFF731FFAF
:1075200000E000BF00BF00BF00BF7BE770B5FFF702
:10753000DFFC00206449088064484069401C002842
:1075400008D001221207126991B2604A506903F013
:1075500052FA02E0012000074069C01E012109071C
:10756000096989B248435A49086000205549088092
:1075700000BF0DE0002102014F4B99500201D218CB
:1075800011810201D21891810201D2185181401C4F
:107590000228EFD30820494908704C484069401C34
:1075A000002808D001221207126991B2474A506997
:1075B00003F021FA02E0012000074069401E01218A
:1075C0000907096989B24843064601200007006996
:1075D00081B2304603F00FFA054620DF0446002C46
:1075E00004D101203349887035490870204670BDA8
:1075F000F8B504460D4600BF31480078002801D197
:107600000820F8BD00BF002C01D10E20F9E7002DA5
:1076100001D10E20F5E72068002801D10E20F0E707
:10762000A08801210907096989B2884202DCA08883
:10763000102801DA0720E4E7E088002830D023484A
:107640004069401C002808D001221207126991B23B
:107650001E4A506903F0CFF902E00120000740699B
:10766000401E01210907096989B24843E188A288BF
:107670005143174A12688918884211D3E088A188BB
:10768000484301210907096989B288420ADDA188B6
:1076900001221207126990B203F0B7F9002901D054
:1076A0000720AEE720798007800F002812D007203E
:1076B000A7E70000B02400200C270020272000208E
:1076C00026200020242000201C2000200010001074
:1076D00020200020FE480088022801D1042090E7E5
:1076E000FB4800882860FB4800686860F849098802
:1076F0000901F94A891868684860F549098809014B
:1077000020685050A088F249098809018918088129
:10771000E088EF4909880901891848810027A6886F
:10772000E1884E4300BF781C87B201200007006942
:1077300080B2B04205D201200007006980B2361A3B
:1077400000E0002601200007006980B2E1490968D5
:107750004018E049086001200007006980B2B0428B
:10776000E1D9DB4800880001DB4940188781D8480F
:107770000088401CD6490880002042E73CB50346FB
:1077800000BFD6480078002801D108203CBD00BFCA
:10779000002B01D10E20F9E7002A01D10E20F5E7D8
:1077A0001868022805D218680001CB4C2058002820
:1077B00001D10720EAE75C68186801940090019CF9
:1077C00018680001C44D40190089484320180190F1
:1077D000009800012C4600194089009C240164197E
:1077E00024896043009C2401641964680019019C89
:1077F000A04201D80720C9E7019C0098546010609E
:107800000020C3E7F8B504460E4615461F4600BFE4
:10781000B2480078002801D10820F8BD00BF002E32
:1078200001D10E20F9E7002C01D10E20F5E72068E8
:10783000022805D220680001A7490858002801D174
:107840000720EAE720680001A34940184089216821
:107850000901A14A89180989484321680901891841
:10786000496840186168884201D80720D5E7002D93
:1078700006D020680001984940180089A84201DA22
:107880000720CAE7E81921680901934A891809897C
:10789000884201DD0720C0E7304600F05CF900288F
:1078A00004D0384600F057F9002801D11020B4E781
:1078B000606800F050F9002801D11020ADE72B4698
:1078C0003246214602200097FFF706FDA5E7F8B5EE
:1078D00004460E4615461F4600BF80480078002823
:1078E00001D10820F8BD00BF002E01D10E20F9E71C
:1078F000002C01D10E20F5E72068022805D220686F
:10790000000175490858002801D10720EAE72068DE
:107910000001714940184089216809016E4A89189F
:107920000989484321680901891849684018616834
:10793000884201D80720D5E7002D06D02068000135
:10794000654940180089A84201DA0720CAE7E8190A
:1079500021680901604A89180989884201DD0720E8
:10796000C0E7304600F0F7F8002804D0384600F0B1
:10797000F2F8002801D11020B4E7606800F0EBF8BD
:10798000002801D11020ADE72B46324621460520C4
:107990000097FFF7A1FCA5E7FFB581B00C4615469F
:1079A0001E4600BF4D480078002802D1082005B0CF
:1079B000F0BD00BF002C01D10E20F8E7019800288F
:1079C00001D10E20F3E72068022805D220680001CB
:1079D00041490858002801D10720E8E72068000144
:1079E0003D4940184089216809013B4A89180989A5
:1079F000484321680901891849684018616888422C
:107A000001D80720D3E7002D06D0206800013249B5
:107A100040180089A84201DA0720C8E7A8192168A0
:107A200009012D4A89180989884201DD0720BEE72E
:107A3000019800F090F8002804D0304600F08BF850
:107A4000002801D11020B2E7606800F084F8002817
:107A500001D11020ABE7606881192A46019802F035
:107A600069FF0095206800011B490F58002203217F
:107A70002046019BB847002099E7F8B504460D461B
:107A800000BF16480078002801D10820F8BD00BFCB
:107A9000002C01D10E20F9E72068022805D22068C9
:107AA00000010D490858002801D10720EEE72068A1
:107AB000000109494018408921680901064A8918CE
:107AC000098948432168090189184968401807E075
:107AD0001C200020202000200C2700202620002031
:107AE0006168884201D80720D0E7606800F033F869
:107AF000002801D11020C9E723681B011A4FDB19A8
:107B000062685B68D01A226812013B46D21811895C
:107B100002F071FF002901D00720B7E700202B46B3
:107B20000246214600900420FFF7D6FB0646304669
:107B3000ACE7014600BF0D480078002801D10820BD
:107B4000704700BF002901D10E20F9E708484078AE
:107B500008600020F4E701468807800F002801D163
:107B6000012070470020FCE70C2700202620002081
:107B7000B0240020F7B584B004460F460698067876
:107B8000B01C1F2803DC6078801C1F2802DD0C203D
:107B900007B0F0BD1F20801B801E85B20295B11C6E
:107BA000781802A97DDF03900398002801D003987C
:107BB000EEE72078022808D168460089A84204DC54
:107BC00009200190684605890BE008200190607843
:107BD000002804D06078A84201DC657801E068469E
:107BE0000589681CC2B23046711CCEB23A54304688
:107BF000721CD6B20199395406980178A81C08184D
:107C0000C1B2069801700020C2E7F8B505460C46DF
:107C10002078001D1F2801DD0C20F8BD684679DFA3
:107C20000646002E01D03046F7E703212278501C8B
:107C30002070A95419212278501C2070A954207852
:107C400041196846008800F08AFA217840182070AF
:107C50000020E2E7F8B505460F4616461C46686860
:107C6000002801D10720F8BD2078801C2988401801
:107C70001F2801DD0C20F6E72878401CC1B22278CD
:107C8000501C2070B1542178481C207077542A88E9
:107C900023789819696802F04DFE207829784018F9
:107CA00020700020DFE730B503461078C01C1F2885
:107CB00001DD0C2030BD02241578681C10704C5575
:107CC0000A241578681C10704C551578681C1070C3
:107CD0004B550020EEE7FFB587B006461D46109CC9
:107CE0000020069020780590002747E0B9007068D2
:107CF00041180A886846028149884181002203A907
:107D000002A865DF04900498002802D004980BB004
:107D1000F0BD6846017B099881422ED10698002863
:107D200001D0002000E00220019020786946097B04
:107D30004118019808181F2801DD0C20E7E7069874
:107D4000002809D12078401C20702278511C089806
:107D50002170A854012006902078421903A902A896
:107D600065DF04900498002801D00498CFE72078BC
:107D70006946097B4018207000BF7F1C3088B842DC
:107D8000B4DC0698002806D021780598401C081A13
:107D9000C1B2059829540020B9E7FFB581B0074664
:107DA00015460A9E009602223846049B0299FFF768
:107DB00092FF0446002C02D0204605B0F0BD00968C
:107DC000102229463846049BFFF785FF0446002C05
:107DD00001D02046F1E70020EFE701460888062899
:107DE00008DB08881922D201904205DD0888E04AA4
:107DF000904201D0072070474888062808DB488851
:107E00001922D201904205DD4888D94A904201D01A
:107E10000720F0E70888D64A904208D04888904268
:107E200005D008884A88904201DD0720E3E700205A
:107E3000E1E7F8B506460D4614462078801D1F2858
:107E400001D90C20F8BD3046FFF7C7FF0746002FC9
:107E500001D03846F6E705212278501C2070A9543D
:107E600012212278501C2070A95422785119308890
:107E700000F075F921784018207022785119708827
:107E800000F06DF92178401820700020DAE7F8B58D
:107E900005460E4614462879801CC7B22078801CFF
:107EA000C0191F2801DD0C20F8BD781CC1B2227852
:107EB000501C2070B154FF212278501C2070B15406
:107EC00022789119288800F04AF92178401820700A
:107ED000A88800280EDDA868002801D10720E3E764
:107EE000AA8823789819A96802F024FD20782979B6
:107EF000401820700020D7E7FEB507460E4614460E
:107F0000386B002801D10720FEBD0020019032E02F
:107F1000396B0C22019850430D182879801CC0B28F
:107F200000900098401CC1B22278501C2070B154BF
:107F300016212278501C2070B1542278911928887B
:107F400000F00DF9217840182070A88800280EDD77
:107F5000A868002801D10720D6E7AA8823789819B5
:107F6000A96802F0E7FC2078297940182070019870
:107F7000401CC0B201903420C15D01988142C7DC31
:107F80000020C1E7F8B504460F461646002500203C
:107F900030702078002809D0324639462046FFF755
:107FA000E9FD0546002D01D02846F8BDA07800283F
:107FB00008D031463846FFF728FE0546002D01D08F
:107FC0002846F2E7A08800280ADD33463A46012118
:107FD000201DFFF73FFE0546002D01D02846E4E7AF
:107FE000E06800280BD00020E16808563246394688
:107FF000FFF759FE0546002D01D02846D5E7208A17
:1080000000280CDD3B460622022120461030009657
:10801000FFF7C3FE0546002D01D02846C5E7208B9B
:1080200000280CDD3B46072203212046183000962D
:10803000FFF7B3FE0546002D01D02846B5E7208C9A
:1080400000280CDD3B4615221421204620300096E6
:10805000FFF7A3FE0546002D01D02846A5E7A06A3C
:10806000002809D032463946A06AFFF7E2FE0546ED
:10807000002D01D0284698E7E06A002809D0324652
:108080003946E06AFFF703FF0546002D01D0284678
:108090008BE73420005D002809DD32463946204652
:1080A000FFF72AFF0546002D01D028467DE7284628
:1080B0007BE701468888002808D08868002805D01A
:1080C0008868007804221040002801D107207047FA
:1080D0000020FCE701468888002801DD0720704762
:1080E0000020FCE7F3B593B00D46002112911191E9
:1080F0001398002814D01398FFF7DBFF0446002CD8
:1081000002D0204615B0F0BD12AA09A91398FFF7B6
:1081100039FF0446002C01D02046F3E709AE00E009
:108120000026002D13D02846FFF7D4FF0446002C6C
:1081300001D02046E6E711AA01A92846FFF722FF51
:108140000446002C01D02046DCE701AF00E0002708
:1081500010A803793A46017A304672DFD2E7024628
:108160000A70FF2000021040001248700220704781
:10817000FFFF000030B50346481CC004040C104645
:108180008507AD0F002D01D1012500E00025002D50
:1081900001D1072030BD7A4802601019794D28605E
:1081A0000020794D2870794D2870794803807948EE
:1081B00001800020EEE7F7B584B00C4674480088D3
:1081C00084426BDC744D0020039000F0A4F8029010
:1081D0000298012814D003A82EDF0746022F01D1F0
:1081E00072B60CE000BF0197019F002F06D000BFC0
:1081F0006AA259210198FDF7F1FF00BF00BF00BF3F
:108200006148007800F0B1F860490978884206D0EA
:108210005D480578007800F0A8F85B49087002987E
:10822000012814D062B66846007B2FDF0746022F74
:108230000CD000BF0197019F002F06D000BF57A2AE
:1082400061210198FDF7CAFF00BF00BF00BF52487F
:10825000854221D0E9004A4A069812685050049895
:10826000002811D0002C0FDD494909886943454A8F
:10827000126888182246049902F05CFBE800404925
:1082800009684018848005E00020E9003C4A126833
:1082900089188880002600E0042600E00926304680
:1082A00007B0F0BDF8B505460E461746052000900C
:1082B000354800783549097888421BD0334804781E
:1082C000007800F052F83149087031480088604366
:1082D0002C49096840182860E000294909684018BD
:1082E00080883080E00026490968085838600020FE
:1082F000009000BF0098F8BD0EB504E06846818884
:10830000009A029890476A4601A902A8FFF7CAFF9F
:108310000028F3D00EBD10B52A484068C105C90D2C
:10832000002920D00A46103A50B200280DDA254B19
:108330001C330407240F083CA408A4001B5984071D
:10834000E40EE3401B069B0F0BE01F4B03242402AB
:108350001B198408A4001B598407E40EE3401B0684
:108360009B0FD8B210BD0420FCE7014609480088E5
:10837000814201DA481C00E00020C0B270470000D2
:10838000282000202C200020312000203020002038
:108390003220002034200020FFFF00002E2E5C53EE
:1083A0006F757263655C6170705F636F6D6D6F6E2A
:1083B0005C6170705F7363686564756C65722E6371
:1083C0000000000000ED00E000E100E010B5002832
:1083D00019DAFB4A03071B0F083B9B089B00D25886
:1083E0008307DC0EFF23A3409A438B071B0E8407F1
:1083F000E40EA3401A43F24B0407240F083CA408E0
:10840000A4001A5118E0EF4A03231B02D218830874
:108410009B00D2588307DC0EFF23A3409A438B07AF
:108420001B0E8407E40EA3401A43E64B03242402E8
:108430001B198408A4001A5110BD10B50446E24867
:10844000846003211120FFF7C1FF10BD10B501208A
:108450000004DE494860DD4940394860112000F0E1
:10846000EFFC112000F0DEFC0120D94908602F202C
:10847000FDF778FE0120D749087010BD10B5112016
:1084800001218140CF4A8032116000BF01200004E9
:10849000CE498860CD49403988600120CC49486088
:1084A0002F20FDF75FFE0120C94988600020CA49DE
:1084B00008602F20FDF756FE0020C649087010BD49
:1084C000F0B5024624205043C44B1B68C118C44871
:1084D0000068401C002802D1C148026059E0C04831
:1084E0004B68006824246043BC4C24680019406831
:1084F000834217D8BA48006824235843B74B1B68F7
:10850000C01840684B68C31AB5480068242460430B
:10851000B24C246800194360B14800680862B04852
:10852000026036E04B68AE4D2C6828680DE02425CB
:108530004543AA4E3668AD196D685B1B0446242579
:108540004543A64E3668AD19286A451C002D07D054
:1085500024254543A14E3668AD196D689D42E6D38A
:10856000451C002D0CD0242545439C4E3668AD1982
:108570006D68EE1A24254543984F3F68ED196E60EB
:108580004B60086224256543944E3668AD192A6213
:1085900000BFF0BDF8B50646914805682C4609E0D5
:1085A000B44200D109E02546242060438B49096884
:1085B0004018046A601C0028F2D100BF601C00282B
:1085C00000D1F8BDA54210D1854800682421484358
:1085D000824909684018006A8149086008460068B5
:1085E000401C002801D1FFF749FF242060437B494C
:1085F0000968401847682420604378490968401892
:10860000016A24206843754A126880180162242098
:108610006843724909684018046A601C00280CD03D
:10862000242060436D49096840184068C11924201E
:1086300060436A4A12688018416000BFC1E710B504
:10864000112000F0F6FB10BD10B5142000F0F1FB76
:1086500010BD70B5044663480068002813D0614A15
:10866000E169A06912689047054600BF2E46002EBA
:1086700007D000BF5CA2FF2164313046FDF7AEFD9C
:1086800000BF00BF02E0A169E069884770BDF8B58E
:1086900053480068401C00283AD0002700F002FC34
:1086A00004464D480168204600F0FFFB06464C4852
:1086B000056811E024206843484909684418606847
:1086C000B04200D90BE06068361A6068C719256AA5
:1086D0002046FFF7BEFF00BF681C0028EAD100BF9C
:1086E0004A4800784A490978884209D148480078C0
:1086F000401CC0B246490870022801D10020087011
:1087000043480078800043490F50FFF79DFF00BFAA
:10871000F8BD01463D4800783D4A127890421DD090
:108720003A480078401C394A1070104600780228F8
:1087300001D100201070354800788000354A10586B
:108740000860254A086812688018234A106010469D
:1087500000680002000A10600120704700200860D5
:1087600000BFFAE7FEB51E48006801902A4800786D
:10877000009070E00098C0002849096844182578E6
:1087800065E01820684361680F18681CC5B2A078BE
:10879000A84200D100253878022802D0032853D1FE
:1087A0003EE02421786848430C4909684618307D2A
:1087B000002804D07868FFF7EDFE0020307544E013
:1087C0001CED00E000E100E0001501404013014015
:1087D00000100140602000204C2000203C200020A0
:1087E000482000205C2000202E2E5C536F757263A1
:1087F000655C6170705F636F6D6D6F6E5C617070F2
:108800005F74696D65722E630000000058200020BF
:10881000592000205020002040200020442000202B
:108820000CE0F849096824225143F74A1268881875
:1088300000210175F34A016A116000BFF148006828
:10884000401C0028EDD100E000BF00BF00BF6078F1
:10885000A84296D100BF0098411EC9B200910028DD
:1088600088D1E84801680198814201D00120FEBD0D
:108870000020FCE7F0B50346002426E0E14E366810
:1088800024277E43E04F3F68F01946689E4203D993
:108890004668F61A46601DE046689B1B4668341918
:1088A000002646600675D74E3568D64F066A3E608C
:1088B0000669002E08D00E193602360A866006694F
:1088C000C66016680662156000BFCE480068401C8E
:1088D0000028D3D100BFF0BDFEB50746C9480068E7
:1088E0000290CA48007801906BE00198C000C84926
:1088F000096845185DE0781C002807D03E46242012
:108900007043C14909684418276A23E0297818236D
:1089100059436A6850182978491C29702978AA781F
:10892000914201D100212970466824217143B64A41
:1089300012688C180178012902D1217D002900D00C
:1089400037E08168A160C168E16001692161416926
:10895000E16100BFAF49A0680968401A0002000A3F
:10896000AD49884208D2AB49A068096800F09DFA79
:10897000E1684018606011E0A648A168006800F056
:1089800094FA0090E1680098814204D9E168009867
:10899000081A606001E00020606000BF0020A06055
:1089A000E06001202075801E20623046FFF788FDC0
:1089B00000BF781C00289ED12878697888429AD117
:1089C00000BF0198411EC9B2019100288DD18D4888
:1089D00001680298814201D00120FEBD0020FCE721
:1089E000FEB588480068401C002834D085480068DF
:1089F00024214843844909684018456800F052FA28
:108A00000190844804682146019800F04EFAC61C83
:108A100082480078002801D1FFF718FDAE4201D24C
:108A2000284600E0304604192402240A20467C49E6
:108A3000086000BF00F036FA00900199009800F03D
:108A400034FAC71C2046019900F02FFA874201D959
:108A5000FFF7F5FD01E0FFF711FDFEBDFEB50020BB
:108A6000C04301906B480468664807686846FFF792
:108A700050FE0546FFF776FE0646002D05D001AAFA
:108A800021460098FFF7F6FE01260198FFF724FF24
:108A9000002800D00126002E02D03846FFF7A0FFA4
:108AA000FEBD4170704770B502460B465078411CC0
:108AB0009078884200D100211078884201D10020AE
:108AC00070BD196050781826704355682C182046E0
:108AD000F6E7FFB581B005460E461746E9004C4A59
:108AE000126888186946FFF7DEFF0446002C02D1A1
:108AF000042005B0F0BD01202070666000F0D2F9BE
:108B0000A060E760049820610A986061E900404A2B
:108B1000126888180099FFF7C4FFFFF795FD002041
:108B2000E7E7F8B504460E46E100394A12688818AE
:108B30006946FFF7B8FF0546002D01D10420F8BDB6
:108B4000022028706E60E100314A1268881800998E
:108B5000FFF7A7FFFFF778FD0020F0E738B50446E0
:108B6000E1002B4A126888186946FFF79CFF05460A
:108B7000002D01D1042038BD03202870001F68603B
:108B8000E100234A126888180099FFF78AFFFFF76F
:108B90005BFD0020EFE710B50020224908600021AE
:108BA000204841608160C16000201E494039086052
:108BB0004860FFF76CFD10BD10B5FFF74FFF10BD0B
:108BC000FFB581B00E4617461C4620468107890F27
:108BD000002901D1012100E00021002902D1072054
:108BE00005B0F0BD002C01D10720F9E7FFF746FCE6
:108BF0000D490A9808600D48067003480460002576
:108C000023E00000482000203C20002040200020DD
:108C1000442000204C200020FFFF7F006020002027
:108C200040150140401101405C2000203820002008
:108C30000021242068439F4A12681154242068436D
:108C40009C4A1268801801756D1CB542F0DB242027
:108C50007043041903209849087098480460183438
:108C600000250CE0E900954A12688818002101707F
:108C7000417087704460182179430C196D1C032DD5
:108C8000F0DB0020C0438E49086000208D49087049
:108C90008D490870142000F0D3F803211420FFF749
:108CA00095FB142000F0BEF80198FFF7C6FB00F01A
:108CB000F9F886490860002092E770B503460C4633
:108CC0007C480068002801D1082070BD002A01D12D
:108CD0000720FAE7002B01D10720F6E700211CE06E
:108CE00024204843734D2D68285C002814D10125A9
:108CF000242048436F4E36683554242048436D4D38
:108D00002D6840194470242048436A4D2D6840194D
:108D1000826119600020D8E7491C6D4800788142C3
:108D2000DEDB0420D1E710B500F092F8012802D074
:108D3000032804D101E0002403E0012401E002241F
:108D400000BF00BF204610BDFEB504460D461646C6
:108D500058480068002801D10820FEBD5C48007812
:108D6000844201D2052D01D20720F6E7242060437A
:108D700050490968085C012801D00820EDE724204B
:108D800060434C49096840184078012801D12846C1
:108D900000E000200746FFF7C6FF3B462A46214673
:108DA00000960190FFF795FED7E770B5044641485D
:108DB0000068002801D1082070BD45480078844231
:108DC00001D30720F8E7242060433A490968085C8A
:108DD000012801D00820EFE7FFF7A5FF054621464F
:108DE000FFF79FFEE8E710B532480068002801D180
:108DF000082010BDFFF797FF0446FFF7AFFEF8E726
:108E000010B5044600F04EF82060002010BD70B58B
:108E100005460E4614463146284600F046F82060C6
:108E2000002070BDC206D20E01219140294A116076
:108E30007047C206D20E01219140274A1160704747
:108E4000C206D20E01219140234A80321160704740
:108E500010B522484068C105C90D002920D00A4636
:108E6000103A50B200280DDA1C4B1C330407240FB3
:108E7000083CA408A4001B598407E40EE3401B0629
:108E80009B0F0BE0134B032424021B198408A4003E
:108E90001B598407E40EE3401B069B0FD8B210BD9C
:108EA0000420FCE70E48406870470246501A000252
:108EB000000A70473C200020402000204420002071
:108EC0004820002058200020592000204C2000205D
:108ED0003820002000E100E000E200E000ED00E0CA
:108EE0000015014001464888B74A1288904206DBC7
:108EF0004888B54A5288904201DC01207047002022
:108F0000FCE738B50546B1480088B14988423BD0F6
:108F1000B0480078401CAF490870AF48007B097822
:108F200088420FDBA849A948008875DF0446002C59
:108F300007D0A9488069002803D0A7488169204646
:108F4000884721E00020A3490870A348007C00283E
:108F50000FD03B219D48008876DF0446002C07D0C7
:108F60009D488069002803D09B4881692046884736
:108F700000BF99484069002806D00020009096481C
:108F800041696846884700BF38BD70B505461C2258
:108F900029469148FDF7F6F80020904908702868A6
:108FA00000280BD008228848296801F0C3FC8648B5
:108FB0007ADF0446002C08D0204670BD82487BDF53
:108FC0000446002C01D02046F7E70020C0437F492B
:108FD000088000207F490870814A00218148FFF7FE
:108FE0006CFEEAE710B57F480068FFF7DEFE10BDB3
:108FF00038B57D48FFF776FF002829D177480078FB
:1090000000280AD074484069002820D00020009031
:10901000714841696846884719E06E480078002821
:1090200002D16D48456801E06B48856800222946F9
:109030006C480068FFF788FE0446002C07D066489D
:109040008069002803D064488169204688470AE087
:1090500061484069002806D0012000905E484169BF
:109060006846884700BF00205C49087038BD10B5CD
:109070000446A08855490880082221460E315A48E6
:1090800001F058FC0020534908705348C08900285B
:1090900001D1FFF7ADFF10BD70B505460020C043FC
:1090A0004A49088000204B4908704E480068FFF785
:1090B0007CFE0446002C07D047488069002803D076
:1090C000454881692046884770BD70B50546AC1D8E
:1090D00020884149C989884220D1208B02281DD18E
:1090E00000BF00BFA17EE27E120211430846C10705
:1090F000C90F002902D0FFF77BFF0FE03948006855
:10910000FFF753FE0646002E07D03348806900283B
:1091100003D0314881693046884700BF70BD10B523
:1091200004460822A11D304801F004FCFFF760FF4F
:1091300010BD10B504462088102806D0112808D08C
:1091400012280ED0502810D107E02046FFF78FFFDD
:109150000CE02046FFF7A0FF08E02046FFF7B5FF30
:1091600004E02046FFF7DBFF00E000BF00BF10BDBA
:1091700038B5044608222146134801F0DBFB1248AB
:109180007ADF0546002D1CD11748FFF7ABFE0028FB
:109190000BD10120114908700B490C48008875DF7C
:1091A000054601200B4908700BE00B484069002878
:1091B00006D001200090084841696846884700BFF2
:1091C0000025284638BD0000642000206E200020C5
:1091D000FFFF00006C2000202C2700207C200020B6
:1091E000038F0100782000207020002070B5064613
:1091F0000C46154629462046FDF70AF870BDF8B51D
:109200005A480078002800D1F8BD59480068002865
:1092100001D1012000E000200546564800680028E2
:1092200001D1012000E00020064600BF002D14D12E
:10923000684651DF0446052C01D101250CE0002CC5
:1092400006D000BF4CA269212046FCF7C7FF03E00F
:10925000474900980968884700BF002E1AD1514835
:109260000088009069465048006861DF0446052C7C
:1092700001D101260DE0002C06D000BF3EA28021C6
:109280002046FCF7ABFF04E047480068394909680D
:10929000884700BF002D02D0002E00D000E0C5E7B7
:1092A00000BF00BFB0E7FFB581B00C4616461F46B1
:1092B000002C02D1072005B0F0BD20468107890FA0
:1092C000002901D1012100E00021002901D107205E
:1092D000F1E7354804603348068034480760344974
:1092E000019810DF0546002D01D02846E3E7012054
:1092F0001E490870162026DFDDE710B511DF044691
:10930000002C01D0012000E0002018490870204600
:1093100010BD0146002901D10E207047154801609B
:109320000020FAE70146002901D10E2070471048BD
:1093300001600020FAE770B51C480068002811D0D1
:109340001A4800688047044600BF2546002D07D014
:1093500000BF09A2FF2133312846FCF73FFF00BFC1
:1093600000BF01E0FFF74BFF70BD00008A20002026
:10937000902000208C2000202E2E5C536F7572638D
:10938000655C73645F636F6D6D6F6E5C736F667445
:109390006465766963655F68616E646C65722E638F
:1093A0000000000088200020842000208020002071
:1093B000ED910100F8B504460D4694480068002878
:1093C00013D0EAB22178914B60681B689847064633
:1093D00000BF3746002F06D000BF8DA22821384697
:1093E000FCF7FCFE00BF00BF0CE0012D04D120788B
:1093F00001216268904705E0002D03D1207800210B
:1094000062689047F8BDF8B5074669468948007814
:1094100000F0F1FA0646002E00D0F8BD002534E039
:10942000E8008549096844188448006822780121C9
:109430009140084000280FD0606800280CD0607868
:10944000012804D100212046FFF7B4FF1BE00121D1
:109450002046FFF7AFFF16E07848406822780121E8
:109460009140084000280ED0606800280BD060783A
:10947000012804D101212046FFF79CFF03E00021D1
:109480002046FFF797FF681CC5B26D4800788542FB
:10949000C6DB00BFC1E770B504460D4669480068E9
:1094A000FFF783FC0646002E00D070BD6348446081
:1094B0000560204628430246634801686148006809
:1094C000FFF742FC064600BFEFE7FFB583B0064654
:1094D0000C461746052F02D2072007B0F0BD5648AC
:1094E0000660574804705848076048490698086065
:1094F000002515E0E1008819027800928178019139
:10950000019989000522120707231B02D318009A2C
:109510009200995000BF0278012191400D4300BF95
:109520002046611ECCB20028E4D1484B2A46294689
:10953000404800F089F902900298002801D0029872
:10954000CBE7434A00213F48FFF7B7FBC5E710B51B
:1095500039480068002801D1082010BD354800783E
:1095600000F0B7F9F9E710B533480068002801D1D9
:10957000082010BD2F48007800F01CFA0446002C8B
:1095800001D02046F5E72F480068FFF70EFCF0E712
:10959000F8B506460C462A480078864201DD0720C9
:1095A000F8BDF000244909684518234800680028E0
:1095B00001D10820F4E769461E48007800F01BFA44
:1095C0000746002F01D03846EAE7687800280CD11A
:1095D00029780098C840C007C00F002802D000209A
:1095E000207011E0012020700EE0687801280BD176
:1095F00029780098C840C007C00F002802D0012079
:10960000207001E0002020700020C9E7A020002089
:109610002E2E5C536F757263655C6170705F636F53
:109620006D6D6F6E5C6170705F627574746F6E2EBD
:1096300063000000A420002094200020AC20002023
:1096400098200020A82000209C2000209794010052
:1096500007940100F0B502460C46002037E00123D4
:109660008340194623460B40002B2FD0D5680D4070
:10967000002D05D101235B04D5680D43D56004E0BE
:1096800003231B04D5688D43D56005252D070726C8
:109690003602AD198600AD5903263604B5430526BA
:1096A000360707273F02F6198700F55105252D07D4
:1096B00007263602AD198600AD591D43052636072B
:1096C00007273F02F6198700F55100BF401C2028EC
:1096D000C5D3F0BDF0B585B0EF4805690020EF496E
:1096E000C86300263FE014207043ED490968441820
:1096F0000120B040EB4909680840002831D0E068FB
:10970000C043684021680840074639462046FFF7B5
:10971000A1FFE148006968400390039800280ED03B
:1097200003980543E068C043684021680840009002
:1097300020460099FFF78EFF0098074300BFA068FE
:10974000A843384001906068284038400290019951
:1097500002980843002803D0226901990298904793
:1097600000BF701CC6B2D04800788642BBDB05B093
:10977000F0BD10B50146002029E014224A43C84B31
:109780001B689A58012383401A40002A1ED00522E4
:10979000120707231B02D2188300D25803231B048D
:1097A0009A4305231B07072424021B1984001A511E
:1097B0000522120707231B02D2188300D258052363
:1097C0001B07072424021B1984001A51401C20285F
:1097D000D3D310BD70B505460C46002C01D107202F
:1097E00070BD20468107890F002901D1012100E0C9
:1097F0000021002901D10720F2E7A9480460AB4805
:1098000005700020A8490870A6490860A74800789C
:10981000142250430146A248006801F0EAF80020F3
:10982000C043A3498860062001218140A14A1160FC
:1098300000BF012100F0F9F80620012181409E4A75
:10984000116000BF0020CBE7F8B504460D46164670
:109850001F4693480068002801D10820F8BD002F5A
:1098600001D10720FAE790480078904909788842AA
:1098700001DB0420F2E7284630438B4909781422A3
:109880005143874A12685050874800781421484352
:10989000834909684018456083480078142148438B
:1098A0007F490968401886607F4800781421484342
:1098B0007B490968401807617B48007820707A4826
:1098C0000078401C784908702078FFF752FF00208C
:1098D000C4E7F0B5024672480068002801D10820AC
:1098E000F0BD71480078824201DB0720F8E70020D4
:1098F0006A4BD863684804696A480068002802D146
:1099000058066B4B586001209040664B1B6818430B
:10991000644B1860002314205043614D2D6840199A
:10992000C360002142E001238B40184614235343B7
:109930005B4D2D68EB580340002B36D02546054083
:10994000002D02D003231B040EE001235B04142529
:109950005543534E3668AD19ED68054314265643FA
:109960004F4F3F68F619F56005252D07072636028B
:10997000AD198E00AD5903263604B54305263607CA
:1099800007273F02F6198F00F55105252D070726F9
:109990003602AD198E00AD591D430526360707273F
:1099A0003F02F6198F00F55100BF491C2029BAD398
:1099B000002095E710B5044639480068002801D119
:1099C000082010BD38480078844201DB0720F8E702
:1099D0002046FFF7CEFE0120A040324909688143AE
:1099E000304801600068002803D10120C0073049D9
:1099F00088600020E5E710B5024629480068002885
:109A000001D1082010BD28480078824201DB0720E0
:109A1000F8E714205043224C246803191E480069BB
:109A20001C68204008600020ECE710B5002819DA17
:109A3000224A03071B0F083B9B089B00D258830751
:109A4000DC0EFF23A3409A438B071B0E8407E40E12
:109A5000A3401A43194B0407240F083CA408A40090
:109A60001A5118E0144A03231B02D21883089B00E2
:109A7000D2588307DC0EFF23A3409A438B071B0EAB
:109A80008407E40EA3401A430B4B032424021B1942
:109A90008408A4001A5110BD000500504061004028
:109AA000BC200020B4200020B9200020B8200020D5
:109AB0000063004080E200E000E100E01CED00E017
:109AC00010B5F74C022020616061F6A0A061F84952
:109AD000E1610121890221620021A1626162E162EA
:109AE000F0A0A064F349E164102121650021A16583
:109AF0006165E165F0A1E01D00F0D4FEEFA1204614
:109B000000F0D0FE2020A07110BDF7B582B0044651
:109B1000174600200190E56800BF2069009000987A
:109B2000A84203D90098401B461E04E0A168009893
:109B3000281A401C0E1AA068401BB04201D93046BA
:109B400001E0A068401B0646BE4201D2304600E05C
:109B500038460646616848193246039900F0EAFE25
:109B6000019880190190039880190390BF1BAD19CB
:109B7000A068A84200D10025E560002FCDD1019852
:109B800005B0F0BDF7B582B004461546E668A0689A
:109B9000871BAF4208D9616888192A46039900F0EB
:109BA000C9FE7019E06010E0019761688819019A98
:109BB000039900F0BFFEE81B0190039AD119606879
:109BC000019A00F0B7FE0198E06005B0F0BD38B52D
:109BD00005460C46FF2168460170BA48015D68469B
:109BE0004170022269462846FFF78FFF38BD10B545
:109BF00001460A69CB689A4204D88C68641EE41A4C
:109C0000A01801E0D41A601E10BDF7B584B0174645
:109C100000BFA3480078002801D1FFF751FF00BF23
:109C20001821049848439E494831461805980190E8
:109C30003569F0680290002003900298854219D996
:109C4000B068441BBC4201D2204600E038460446BE
:109C5000706841192246019800F06CFE03980019C3
:109C600003900198001901903F1B2D19B068A8427C
:109C700000D100250298441BBC4201D2204600E0DE
:109C800038460446002C0DD07068411922460198D0
:109C900000F050FE039800190390019800190190FC
:109CA0003F1B2D190398002800D03561039807B099
:109CB000F0BDF8B504460D46164632462946204604
:109CC000FFF7A3FF07463846F8BDF7B584B0154641
:109CD0000598039018210498484371491831441895
:109CE00020690290E6680298B0423ED8A068401E03
:109CF000871BAF4212D360688119761900BF0398A1
:109D0000007808700398401C491C0390681E051ECB
:109D1000F5D17019E060012007B0F0BD02983F183E
:109D2000AF4231D3A068801B01900198A84208D9A6
:109D3000616888192A46039900F0FCFD7019E060FB
:109D400011E061688819019A039900F0F3FD019808
:109D50002A1A019B0398C1186068009000F0EAFD80
:109D60000198281AE0600120D6E70298801B471E60
:109D7000AF4209D3616888192A46039900F0DAFDD9
:109D80007019E0600120C7E70020C5E7F7B582B091
:109D90000746164603980190182078434049183129
:109DA0004018009000984069002804D0012811D084
:109DB000022826D11EE00098FFF719FF0546B5429C
:109DC00001D2002405E03446324601990098FFF79D
:109DD000D9FE18E00098FFF70AFF0546B54201D208
:109DE000284600E030460446224601990098FFF7D5
:109DF000C9FE08E0324601990098FFF786FE044646
:109E000001E0002400BF00BF204605B0F0BDF8B55A
:109E100004460D46164600BF21480078002801D1AF
:109E2000FFF74EFE00BF324629462046FFF7AEFF41
:109E300007463846F8BD70B505460C46204600F08A
:109E400057FD0646324621462846FFF7E0FF70BD23
:109E500038B5012269460020FFF72BFF0446012C8C
:109E600002D16846047801E00024E443204638BD6E
:109E700010B500BFFFF7ECFF0028FBDB10BD70B58D
:109E800000BF07480078002801D1FFF719FE00BF86
:109E90000348856D406DA84216D0012415E00000EE
:109EA000582B00205465726D696E616C00000000D3
:109EB00048270020482B0020525454005345474760
:109EC00045520000C02000200024204670BD10B57F
:109ED000014618204843F84C0219D3681069181A33
:109EE00010BDFFB581B005460E46174600BFF248CB
:109EF00048380078002801D1FFF7E2FD00BF0024B8
:109F000000BF18206043EC4940184068002800D189
:109F100005E0641CE84848384069A042F1DC00BF15
:109F2000E54848384069A0421BDD18206043E249FB
:109F30000D501820604340184660182060434018B8
:109F40008760002218206043401802611820604397
:109F50004018C26018206043D74A801804994161B4
:109F600001E00024E443204605B0F0BDFFB581B018
:109F700005460E46174600BFCF48483800780028EF
:109F800001D1FFF79DFD00BF002400BF18206043F2
:109F9000C949303940184068002800D105E0641CE8
:109FA000C54848380069A042F0DC00BFC2484838C4
:109FB0000069A0421DDD18206043BF4930390D50B3
:109FC000182060434018466018206043401887609E
:109FD0000022182060434018026118206043401896
:109FE000C26018206043B44A303A80180499416135
:109FF00001E00024E443204605B0F0BDFFB581B088
:10A0000004460E46174600BFAB4848380078002883
:10A0100001D1FFF755FD00BFA74848380069A042AD
:10A0200025D9002C1AD018206043A34930390E508E
:10A030001820604340184760182161439E4A303A17
:10A040008918049888600022182060439A493039A2
:10A0500040180261182060434018C2601820604315
:10A06000954A303A80180A994161002501E000259F
:10A07000ED43284605B0F0BDFFB581B004460E465D
:10A08000174600BF8C4848380078002801D1FFF7F8
:10A0900017FD00BF884848384069A04221D9002CEC
:10A0A00017D01820604384490E5018206043401890
:10A0B000476018216143804A89180498886000220B
:10A0C000182060437C494018026118206043401802
:10A0D000C26018206043784A80180A9941610025BF
:10A0E00001E00025ED43284605B0F0BD70B50446FB
:10A0F0000E4600BF704848380078002801D1FFF7AD
:10A10000DFFC00BF6C4848380069A04206D918201F
:10A110006043694930390E50002501E00025ED43C8
:10A12000284670BD70B504460E4600BF62484838E8
:10A130000078002801D1FFF7C3FC00BF5E48483813
:10A140004069A04205D9182060435B490E500025A4
:10A1500001E00025ED43284670BD10B500BF56480C
:10A1600048380078002801D1FFF7AAFC00BF10BDD5
:10A17000F8B5044600BF504848380078002801D19F
:10A18000FFF79EFC00BF0027FF2069460870102CD7
:10A1900021DA4A48005D4870474D303D287D8007F0
:10A1A000800F022806D14648047002222846FFF795
:10A1B000ACFC12E02846FFF71AFD0646022E07D334
:10A1C0003F480470022269462846FFF7DBFC04E0A2
:10A1D0000027FF4301E00027FF433846F8BDF3B5F1
:10A1E00081B0074600BF344848380078002801D1C4
:10A1F000FFF766FC00BF102F59DA2F483038009067
:10A20000029800F075FB06460098FFF7F0FC054643
:10A210000098007D8007800F002804D0012817D007
:10A22000022840D12FE0301D854201D200240EE0EB
:10A2300039460098FFF7CBFC324602990098FFF7A9
:10A2400064FC04461E4801780098FFF7C0FC2DE02E
:10A25000042D02D20024E44314E039460098FFF7AD
:10A26000B6FC281FB04201D9304600E0281F024644
:10A2700002990098FFF749FC0446114801780098BC
:10A28000FFF7A5FC12E039460098FFF7A0FC324624
:10A2900002990098FFF739FC0446094801780098B4
:10A2A000FFF795FC02E00024E44300BF01E0002436
:10A2B000E4432046FEBD0000A02B0020C02000206B
:10A2C000D020002070B504460E46A568681C616861
:10A2D000814206D320684655681CA060E068401C97
:10A2E000E0606168A06888420DD1A2682168206999
:10A2F000FFF78DFDA168884203D00020C043E060D5
:10A3000001E00020A06070BDFFB585B0064617468D
:10A310001D460E9C0698029001200390019007E0D4
:10A320003946029800F067FB02900198401C0190AA
:10A330000298B842F4D20198854200D901950F984D
:10A34000C007C00F00281DD1002C1BD002210F9880
:10A350000840022804D1002D02D13020009001E0F5
:10A360002020009008E0641E30460099FFF7AAFF05
:10A37000F068002800DA04E0002C02D00198A04226
:10A38000F1D300BFF068002848DB0FE0012D01D9B0
:10A390006D1E08E00399069800F02DFB04900498C8
:10A3A000B84200D203E0039878430390EEE700BF81
:10A3B00000BF0399069800F01EFB049003990498CF
:10A3C00048430699081A0690E64A0498115C3046FC
:10A3D000FFF778FFF068002800DA07E039460398B5
:10A3E00000F009FB039003980028E2D100BF0F980A
:10A3F000C007C00F002811D0002C0FD008E0641E49
:10A4000020213046FFF75EFFF068002800DA04E004
:10A41000002C02D00198A042F1D300BF09B0F0BDDA
:10A42000FFB585B006460F460F9D0E9C002F01DA42
:10A43000784200E0384603900120049007E0079935
:10A44000039800F0E2FA03900498401C04900799E6
:10A4500003988842F3DA04990898884201D9089849
:10A460000490002C06D0002F03DB04202840042891
:10A4700000D1641E02202840002802D0089800283D
:10A4800015D0E807C00F002811D1002C0FD008E02C
:10A49000641E20213046FFF715FFF068002800DA1F
:10A4A00004E0002C02D00498A042F1D300BFF06871
:10A4B00000283ADB002F05DA7F422D213046FFF7D6
:10A4C00001FF07E004202840042803D12B21304657
:10A4D000FFF7F8FEF068002827DB0220284002285A
:10A4E00018D1E807C00F002814D10898002811D10E
:10A4F000002C0FD008E0641E30213046FFF7E2FE4A
:10A50000F068002800DA04E0002C02D00498A04291
:10A51000F1D300BFF068002807DB019500943946AD
:10A520003046089B079AFFF7EFFE09B0F0BDF7B57C
:10A530009AB00D46144602A81590402016900020AF
:10A5400017901A9819900020189000BF2E786D1C53
:10A55000002E00D1E4E0252E79D1002701201490AF
:10A5600000BF2E78232E12D02B2E0CD02D2E02D0F1
:10A57000302E10D103E0012007436D1C0EE00220B5
:10A5800007436D1C0AE0042007436D1C06E0082009
:10A5900007436D1C02E00020149000BF00BF149818
:10A5A0000028DED1129000BF2E78302E01DB392E2C
:10A5B00000DD08E06D1C0A2112984843314630390D
:10A5C00040181290F0E700BF002013902E782E2E36
:10A5D00011D16D1C00BF2E78302E01DB392E00DD2D
:10A5E00008E06D1C0A211398484331463039401861
:10A5F0001390F0E700BF2E7800BF6C2E01D0682EBC
:10A6000002D12E786D1C00E000E0F6E700BF702E4E
:10A6100063D008DC252E72D0582E38D0632E09D096
:10A62000642E71D114E0732E40D0752E1FD0782E79
:10A630006AD12BE02168081D2060086814901498E6
:10A64000C0B2019015A80199FFF73CFE5DE05FE004
:10A650002168081D206008681490129801970090E6
:10A660000A2215A8139B1499FFF7DAFE4DE0216822
:10A67000081D2060086814901298019700900A2223
:10A6800015A8139B1499FFF73FFE3EE000BF216819
:10A69000081D2060086814901298019700901022FD
:10A6A00015A8139B1499FFF72FFE2EE02168081DB3
:10A6B00020600868019000BF019806780198401C4E
:10A6C0000190002E00D106E0314615A8FFF7FAFDF3
:10A6D00018980028F0DA00BF17E02168081D2060F4
:10A6E00008681490002008210B4610220091019068
:10A6F00015A81499FFF708FE07E000E004E0252103
:10A7000015A8FFF7DFFD00E000BF00BF6D1C03E0F0
:10A71000314615A8FFF7D6FD1898002800DB15E78D
:10A7200000BF189800280BDD1798002804D002A954
:10A73000179A1A98FFF76BFB1799189840181890FA
:10A7400018981DB0F0BD0FB438B5044606A80090A7
:10A750006A4620460599FFF7EAFE38BC08BC04B0FB
:10A7600018470000FCAB010003210C4802680A43B3
:10A7700002600B4802680A4302600A4880470A48A0
:10A780000047FEE7FEE7FEE7FEE7FEE7FEE7000024
:10A7900006480749074A084B704700002405004057
:10A7A0005405004061A80100C1600100302C002068
:10A7B000303C00203034002030340020324833490F
:10A7C000086070473248008CC0B2012812D130486E
:10A7D000808C0007000F00280CD12D48806AF021E2
:10A7E0000840402806D12A48C06A0840002801D104
:10A7F000012070470020FCE72548008CC0B20128EA
:10A800002CD12348808C0007000F002826D1204837
:10A81000806AF0210840002806D11D48C06A08401F
:10A82000002801D1012070471948806AF0210840B2
:10A83000102806D11648C06A0840002801D101201E
:10A84000F1E71348806AF0210840302806D110480B
:10A85000C06A0840002801D10120E4E70020E2E7B7
:10A8600010B5FFF7C9FF002805D00A480A4948601B
:10A87000C8130A498861FFF7A5FF002802D001200C
:10A880000749886010BD00000024F400D420002097
:10A89000C00F00F0DFFF07C000050040006C004063
:10A8A00000060040034670B502460B439B070FD1DC
:10A8B0000E4CE60100E008C208C91D1B9D4335424D
:10A8C000F9D0D9B21170521C00290DD01B0AF8E73B
:10A8D0000B78491C1370521C002B05D00B78491CB7
:10A8E0001370521C002BF3D170BD00000101010157
:10A8F00030B5441C03E00178401C00290DD08107CD
:10A90000F9D10B4BDD0104C8D11A91432940FAD08B
:10A91000001B0A0603D0C01E30BD001B30BD0A0458
:10A9200001D0801E30BD0902FCD0401E30BD0000A9
:10A9300001010101F8B5042A2CD3830712D00B784A
:10A94000491C0370401C521E83070BD00B78491C16
:10A950000370401C521E830704D00B78491C0370FF
:10A96000401C521E8B079B0F05D0C91ADF00202305
:10A97000DE1B08C90AE0FBF705FCF8BD1D4608C947
:10A98000FD401C46B4402C4310C0121F042AF5D2CF
:10A99000F308C91A521EF0D40B78491C0370401CEE
:10A9A000521EEAD40B78491C0370401C012AE4D4DF
:10A9B00009780170F8BD01E004C0091F0429FBD229
:10A9C0008B0701D50280801CC90700D00270704738
:10A9D00000290BD0C30702D00270401C491E022977
:10A9E00004D3830702D50280801C891EE3E700227E
:10A9F000EEE70022DFE7002203098B422CD3030A93
:10AA00008B4211D300239C464EE003460B433CD4BB
:10AA1000002243088B4231D303098B421CD3030A23
:10AA20008B4201D394463FE0C3098B4201D3CB0153
:10AA3000C01A524183098B4201D38B01C01A524183
:10AA400043098B4201D34B01C01A524103098B4287
:10AA500001D30B01C01A5241C3088B4201D3CB0072
:10AA6000C01A524183088B4201D38B00C01A524155
:10AA700043088B4201D34B00C01A5241411A00D205
:10AA800001465241104670475DE0CA0F00D049426E
:10AA9000031000D34042534000229C4603098B42DE
:10AAA0002DD3030A8B4212D3FC22890112BA030A66
:10AAB0008B420CD3890192118B4208D389019211E8
:10AAC0008B4204D389013AD0921100E08909C3096D
:10AAD0008B4201D3CB01C01A524183098B4201D36F
:10AAE0008B01C01A524143098B4201D34B01C01A5A
:10AAF000524103098B4201D30B01C01A5241C308D2
:10AB00008B4201D3CB00C01A524183088B4201D340
:10AB10008B00C01A5241D9D243088B4201D34B005B
:10AB2000C01A5241411A00D20146634652415B109D
:10AB3000104601D34042002B00D54942704763467E
:10AB40005B1000D3404201B50020C046C04602BDA4
:10AB5000704770477047754600F024F8AE46050010
:10AB600069465346C008C000854618B020B5FFF7B7
:10AB70000FFE60BC00274908B6460026C0C5C0C508
:10AB8000C0C5C0C5C0C5C0C5C0C5C0C5403D4900E1
:10AB90008D46704710B50446C046C0462046FBF7B8
:10ABA000DAFA10BD00487047D02B00200149182068
:10ABB000ABBEFEE726000200704730B47446641E48
:10ABC0002578641CAB4204D3635D5B00E31830BCA2
:10ABD00018471D46F8E700000010000023D1BCEA2A
:10ABE0005F782315DEEF12120000000023D1BCEACB
:10ABF0005F782315DEEF121200000000303132338F
:10AC00003435363738394142434445462CAC01008F
:10AC100000200020D80000000461010004AD010004
:10AC2000D8200020581B0000206101000000000017
:10AC30000000FFFF0000000010000300CD670100CE
:10AC400011000300CD6701000000000000000000BB
:10AC500000000000000000000000000000000000F4
:10AC600000000000000000000000000000000000E4
:10AC700000000000000000000000000000000000D4
:10AC800000000000000000000000000000000000C4
:10AC900000000000000000000000000000000000B4
:10ACA00000000000000000000000000000000000A4
:10ACB0000000000000000000000000000000000094
:10ACC0000000000000000000000000000000000084
:10ACD0000000000000000000000000000000000074
:10ACE000000000000000000000000000303132339E
:10ACF0003435363738394142434445460000000078
:04AD00000024F40037
:04000005000160C1D5
:00000001FF
